:100000000C945E000C94E5020C940C030C94860096
:100010000C9486000C9486000C9486000C94860048
:100020000C9486000C9486000C9486000C94860038
:100030000C9486000C9486000C9486000C94860028
:100040000C9433030C9486000C94BE050C94F005BC
:100050000C9486000C9486000C9486000C94860008
:100060000C9486000C948600000000080002010039
:100070000003040700000000000000000102040863
:100080001020408001020408102001020408102002
:10009000040404040404040402020202020203032E
:1000A0000303030300000000250028002B000000CC
:1000B0000000240027002A00B401200611241FBEDE
:1000C000CFEFD8E0DEBFCDBF11E0A0E0B1E0E2E7C6
:1000D000FFE002C005900D92A233B107D9F721E0ED
:1000E000A2E3B1E001C01D92A43FB207E1F710E026
:1000F000CCEBD0E004C02297FE010E94B307C83BBE
:10010000D107C9F70E9464060C94B7070C9400004D
:1001100081E090E090934101809340010895E2E4F2
:10012000F1E081E08683808726E040E855E260E0E8
:1001300070E087E591E00E945C0560E082E00E944B
:100140000A0461E083E00E940A0460E083E00E9408
:10015000430461E084E00E940A0460E084E00E94BD
:10016000430443E050E068E870E080E00C94C5028E
:10017000EF92FF920F931F93CF93DF93C0914001B3
:10018000D0914101C130D10509F041C01092410127
:1001900010924001D0933B01C0933A010E947D032D
:1001A0006093320170933301809334019093350151
:1001B00061E083E00E94430400913E0110913F0101
:1001C0000F5F1F4F10933F0100933E0181E00E949B
:1001D000C40326E0959587952A95E1F78017910746
:1001E000B4F410923F0110923E01D0933D01C093B0
:1001F0003C010E947D036093360170933701809328
:1002000038019093390161E084E00E94430480E06A
:100210000E94C4037C0182E00E94C4038C01CBEAEB
:10022000D0E0C701BE010E946707660F771F6B5FB2
:100230007E4FFB016081718182E491E00E948A021D
:10024000C801BE010E946707660F771F6B5F7E4F74
:10025000FB016081718182E491E00E948E028091B5
:100260003A0190913B010197D9F40E947D030091DE
:100270003201109133012091340130913501601B1E
:10028000710B820B930B6A3171058105910540F06A
:1002900010923B0110923A0160E083E00E94430417
:1002A00080913C0190913D010197A1F40E947D0352
:1002B00000913601109137012091380130913901B8
:1002C000601B710B820B930B6A31710581059105DF
:1002D00008F041C080E00E94C4034AE050E0BC0145
:1002E00087E591E00E945F0769E087E591E00E9461
:1002F000B10681E00E94C4034AE050E0BC0187E5FA
:1003000091E00E945F0769E087E591E00E94B106F5
:1003100082E00E94C4034AE050E0BC0187E591E01E
:100320000E945F0769E087E591E00E94B10683E0E3
:100330000E94C4034AE050E0BC0187E591E00E94BE
:100340005F0787E591E0DF91CF911F910F91FF90BB
:10035000EF900C94B80610923D0110923C0160E0C1
:1003600084E00E944304B6CF2FEF3FEF4AE050E015
:1003700066E070E082E491E00C94C4018EBD0DB49F
:1003800007FEFDCF8EB50895CF93DF93EC01842F48
:100390001E821F82188691E09987E4E0F0E0FB87D7
:1003A000EA87488359833B832A8363307105C1F010
:1003B0003CF46130710561F06230710561F013C089
:1003C0006530710541F024F06630710549F00BC0CD
:1003D00028E030E002C02AE030E03D832C8305C0F5
:1003E0002CE030E0FACF1D821C8261E00E940A04FA
:1003F00061E08A810E940A0461E088810E944304CE
:1004000061E08A810E9443040E94920281E00E947E
:10041000A80280E00E94B1028A85DF91CF910C94FE
:10042000B602CF92DF92EF92FF920F931F93CF937A
:10043000DF931F92CDB7DEB78C017B01FC01848175
:1004400095818C30910519F4FFE0FF2209C08A30B4
:10045000910519F483E0F82203C0089709F4FF24FA
:10046000F8018085882311F02A9807C060E0F80120
:10047000808149830E9443044981F801C78081E05B
:10048000C826D12C50E2C59ED02CCC2411248681C4
:1004900090E090E4899F902D88271124C82AD92ABA
:1004A00080E090E0942F979599279795C82AD92AAC
:1004B0006894D4F88CE090E024813581821B930B02
:1004C00002C0EE0CFF1C8A95E2F7CE28DF288D2DA6
:1004D0000E94BE018C2D0E94BE01F80180858823F8
:1004E00059F02A9A0F90DF91CF911F910F91FF90B1
:1004F000EF90DF90CF90089561E0F80180810F9038
:10050000DF91CF911F910F91FF90EF90DF90CF90EF
:100510000C94430440E050E00C94110241E050E0A0
:100520000C94110261E08AE00E94430461E08AE0D9
:100530000E940A048CB580618CBD8CB580648CBD32
:1005400061E08DE00E940A0461E08BE00C940A04F3
:10055000811103C08CB5806202C08CB58F7D8CBDCB
:1005600008959CB5937F982B9CBD08952CB5982F2A
:1005700093702C7F922B9CBD9DB582FB882780F9C0
:100580009E7F982B9DBD089508958230E8F4E82F52
:10059000F0E0EE0FFF1FE050FF4F7183608381306A
:1005A00041F0809169008C7F842B80936900E89AE8
:1005B000089580916900440F551F440F551F837F94
:1005C000842B80936900E99A08951F920F920FB6C9
:1005D0000F9211242F933F934F935F936F937F93C9
:1005E0008F939F93AF93BF93EF93FF93E09100019D
:1005F000F09101010995FF91EF91BF91AF919F910A
:100600008F917F916F915F914F913F912F910F90BB
:100610000FBE0F901F9018951F920F920FB60F925A
:1006200011242F933F934F935F936F937F938F93F7
:100630009F93AF93BF93EF93FF93E0910201F091EB
:1006400003010995FF91EF91BF91AF919F918F9118
:100650007F916F915F914F913F912F910F900FBEBE
:100660000F901F9018951F920F920FB60F921124A2
:100670002F933F938F939F93AF93BF9380914F019D
:1006800090915001A0915101B091520130914E01D1
:1006900023E0230F2D3720F40196A11DB11D05C0C5
:1006A00026E8230F0296A11DB11D20934E018093D1
:1006B0004F0190935001A0935101B093520180914A
:1006C000530190915401A0915501B09156010196AA
:1006D000A11DB11D8093530190935401A093550126
:1006E000B0935601BF91AF919F918F913F912F9100
:1006F0000F900FBE0F901F9018952FB7F894609130
:100700004F017091500180915101909152012FBF82
:100710000895789484B5826084BD84B5816084BD79
:1007200085B5826085BD85B5816085BDEEE6F0E06A
:10073000808181608083E1E8F0E0108280818260C6
:100740008083808181608083E0E8F0E08081816047
:100750008083E1EBF0E0808184608083E0EBF0E077
:10076000808181608083EAE7F0E08081846080831B
:1007700080818260808380818160808380818068C5
:1007800080831092C10008958E3008F08E508770DB
:100790002091040190E4299F90011124822B8093E1
:1007A0007C0080917A00806480937A0080917A0046
:1007B00086FDFCCF809178002091790090E0922B0B
:1007C0000895833081F028F4813099F08230A1F0CF
:1007D00008958730A9F08830B9F08430D1F4809141
:1007E00080008F7D03C0809180008F778093800090
:1007F000089584B58F7702C084B58F7D84BD089538
:100800008091B0008F7703C08091B0008F7D80937E
:10081000B0000895CF93DF9390E0FC01E458FF4FC0
:100820002491FC01E057FF4F8491882349F190E027
:10083000880F991FFC01E255FF4FA591B4918C558B
:100840009F4FFC01C591D4919FB7611108C0F894E6
:100850008C91209582238C93888182230AC06230F8
:1008600051F4F8948C91322F309583238C938881A6
:10087000822B888304C0F8948C91822B8C939FBF29
:10088000DF91CF9108950F931F93CF93DF931F9222
:10089000CDB7DEB7282F30E0F901E859FF4F84913A
:1008A000F901E458FF4F1491F901E057FF4F04910B
:1008B0000023C9F0882321F069830E94E103698144
:1008C000E02FF0E0EE0FFF1FEC55FF4FA591B49124
:1008D0009FB7F8948C91611103C01095812301C0DA
:1008E000812B8C939FBF0F90DF91CF911F910F9120
:1008F0000895FC01818D228D90E0805C9F4F821BCA
:1009000091098F7399270895FC01918D828D981715
:1009100031F0828DE80FF11D858D90E008958FEF05
:100920009FEF0895FC01918D828D981761F0828D63
:10093000DF01A80FB11D5D968C91928D9F5F9F7313
:10094000928F90E008958FEF9FEF089586E196E0F3
:10095000892B49F080E090E0892B29F00E9416064F
:1009600081110C9400000895FC01848DDF01A80F13
:10097000B11DA35ABF4F2C91848D90E001968F73C7
:100980009927848FA689B7892C93A089B1898C91E6
:1009900080648C93938D848D981306C00288F389AC
:1009A000E02D80818F7D80830895CF93DF93EC01CC
:1009B000888D8823C9F0EA89FB89808185FD05C07F
:1009C000A889B9898C9186FD0FC00FB607FCF5CFB9
:1009D000808185FFF2CFA889B9898C9185FFEDCF01
:1009E000CE010E94B404E7CFDF91CF910895CF925A
:1009F000DF92FF920F931F93CF93DF931F92CDB798
:100A0000DEB76C0181E0D60158968C9358975B96BF
:100A10009C915B975C968C915C97981307C050965D
:100A2000ED91FC915197808185FD2EC0F601038DDB
:100A300010E00F5F1F4F0F731127F02EF601848D0A
:100A4000F81211C00FB607FCF9CFD6015096ED9100
:100A5000FC915197808185FFF1CFC60169830E9487
:100A6000B4046981EBCF838DE80FF11DE35AFF4F8A
:100A70006083D6015B960C935B975296ED91FC9147
:100A80005397808180620CC0D6015696ED91FC91FF
:100A9000579760835096ED91FC91519780818064C7
:100AA000808381E090E00F90DF91CF911F910F91B3
:100AB000FF90DF90CF900895BF92CF92DF92EF9298
:100AC000FF92CF93DF93EC016A017B01B22EE8899C
:100AD000F98982E08083411581EE5807610571052F
:100AE000A1F060E079E08DE390E0A70196010E941B
:100AF0007B07215031094109510956954795379592
:100B00002795211580E1380798F0E889F989108246
:100B100060E874E88EE190E0A70196010E947B07EF
:100B20002150310941095109569547953795279527
:100B3000EC85FD853083EE85FF852083188EEC895A
:100B4000FD89B082EA89FB89808180618083EA899E
:100B5000FB89808188608083EA89FB898081806845
:100B60008083EA89FB8980818F7D8083DF91CF91AB
:100B7000FF90EF90DF90CF90BF9008951F920F925B
:100B80000FB60F9211242F938F939F93EF93FF93A0
:100B9000E0916701F09168018081E0916D01F09131
:100BA0006E0182FD12C09081809170018F5F8F7302
:100BB00020917101821751F0E0917001F0E0E95A43
:100BC000FE4F958F8093700101C08081FF91EF915E
:100BD0009F918F912F910F900FBE0F901F9018959E
:100BE0001F920F920FB60F9211242F933F934F93A2
:100BF0005F936F937F938F939F93AF93BF93EF9385
:100C0000FF9387E591E00E94B404FF91EF91BF91BB
:100C1000AF919F918F917F916F915F914F913F9194
:100C20002F910F900FBE0F901F90189587E591E0C0
:100C30000E94790421E0892B09F420E0822F089595
:100C400010925A011092590188EE93E0A0E0B0E0B2
:100C500080935B0190935C01A0935D01B0935E0172
:100C600085E191E0909358018093570185EC90E0E5
:100C7000909364018093630184EC90E0909366010B
:100C80008093650180EC90E0909368018093670108
:100C900081EC90E090936A018093690182EC90E08E
:100CA00090936C0180936B0186EC90E090936E01C1
:100CB00080936D0110927001109271011092720177
:100CC00010927301089508950E9489030E9463069B
:100CD0000E948F00C6EAD4E00E94B8002097E1F39A
:100CE0000E94A604F9CFCF92DF92EF92FF920F936A
:100CF0001F93CF93DF937C016A01EB0100E010E0CA
:100D00000C151D0571F06991D701ED91FC910190D1
:100D1000F081E02DC7010995892B19F00F5F1F4F56
:100D2000EFCFC801DF91CF911F910F91FF90EF900E
:100D3000DF90CF9008956115710581F0DB010D9072
:100D40000020E9F7AD0141505109461B570BDC016A
:100D5000ED91FC910280F381E02D099480E090E018
:100D60000895DC01ED91FC910190F081E02D099452
:100D700061E271E00C949B068F929F92AF92BF92BA
:100D8000CF92DF92EF92FF920F931F93CF93DF9357
:100D9000CDB7DEB7A1970FB6F894DEBF0FBECDBFBB
:100DA0007C01C42EE52FCB01D22E19A221E02D15F6
:100DB00010F02AE0D22E8E010F5D1F4F8D2C912C4A
:100DC000A12CB12C6C2D7E2FA50194010E947B07D4
:100DD0008C2DD29E80191124015011098A3014F4EF
:100DE000805D01C0895CF8018083211531054105D2
:100DF000510521F0C22EE32FCA01E4CFB801C7018B
:100E00000E949B06A1960FB6F894DEBF0FBECDBF21
:100E1000DF91CF911F910F91FF90EF90DF90CF90D6
:100E2000BF90AF909F908F900895CF92DF92EF92F6
:100E3000FF920F931F93CF93DF93EC016A017B0125
:100E40002115310579F4E881F9810190F081E02DD7
:100E5000642FDF91CF911F910F91FF90EF90DF9062
:100E6000CF9009942A303105E9F477FF1AC06DE27A
:100E70000E94B1068C0144275527BA014C195D091F
:100E80006E097F092AE0CE010E94BC06800F911FE7
:100E9000DF91CF911F910F91FF90EF90DF90CF9056
:100EA00008952AE0B701A601CE01DF91CF911F91ED
:100EB0000F91FF90EF90DF90CF900C94BC069A01B9
:100EC000AB01662757FD6095762F0C94150797FBAD
:100ED000072E16F4009407D077FD09D00E949D07D5
:100EE00007FC05D03EF4909581959F4F089570952D
:100EF00061957F4F0895A1E21A2EAA1BBB1BFD012D
:100F00000DC0AA1FBB1FEE1FFF1FA217B307E407E8
:100F1000F50720F0A21BB30BE40BF50B661F771F40
:100F2000881F991F1A9469F7609570958095909520
:100F30009B01AC01BD01CF010895AA1BBB1B51E170
:100F400007C0AA1FBB1FA617B70710F0A61BB70B39
:100F5000881F991F5A95A9F780959095BC01CD01DE
:100F60000895EE0FFF1F0590F491E02D0994F89479
:020F7000FFCFB1
:100F7200C402C402010000330366069909CC0CFFC7
:100F82000F00000000F7047306790492048404D56C
:100F9200040D0A006E616E00696E66006F7666006F
:020FA2002E001F
:00000001FF
